{
  "contractName": "Election",
  "abi": [
    {
      "inputs": [
        {
          "internalType": "string[]",
          "name": "candidateNames",
          "type": "string[]"
        },
        {
          "internalType": "uint256",
          "name": "electionStartTime",
          "type": "uint256"
        },
        {
          "internalType": "uint256",
          "name": "electionEndTime",
          "type": "uint256"
        },
        {
          "internalType": "string",
          "name": "_title",
          "type": "string"
        }
      ],
      "payable": false,
      "stateMutability": "nonpayable",
      "type": "constructor"
    },
    {
      "anonymous": false,
      "inputs": [
        {
          "indexed": true,
          "internalType": "address",
          "name": "previousOwner",
          "type": "address"
        },
        {
          "indexed": true,
          "internalType": "address",
          "name": "newOwner",
          "type": "address"
        }
      ],
      "name": "OwnershipTransferred",
      "type": "event"
    },
    {
      "constant": true,
      "inputs": [],
      "name": "candidateCount",
      "outputs": [
        {
          "internalType": "uint256",
          "name": "",
          "type": "uint256"
        }
      ],
      "payable": false,
      "stateMutability": "view",
      "type": "function"
    },
    {
      "constant": true,
      "inputs": [
        {
          "internalType": "uint256",
          "name": "",
          "type": "uint256"
        }
      ],
      "name": "candidates",
      "outputs": [
        {
          "internalType": "string",
          "name": "",
          "type": "string"
        }
      ],
      "payable": false,
      "stateMutability": "view",
      "type": "function"
    },
    {
      "constant": true,
      "inputs": [],
      "name": "endTime",
      "outputs": [
        {
          "internalType": "uint256",
          "name": "",
          "type": "uint256"
        }
      ],
      "payable": false,
      "stateMutability": "view",
      "type": "function"
    },
    {
      "constant": true,
      "inputs": [],
      "name": "isOwner",
      "outputs": [
        {
          "internalType": "bool",
          "name": "",
          "type": "bool"
        }
      ],
      "payable": false,
      "stateMutability": "view",
      "type": "function"
    },
    {
      "constant": true,
      "inputs": [
        {
          "internalType": "string",
          "name": "",
          "type": "string"
        }
      ],
      "name": "leaderBoard",
      "outputs": [
        {
          "internalType": "uint256",
          "name": "",
          "type": "uint256"
        }
      ],
      "payable": false,
      "stateMutability": "view",
      "type": "function"
    },
    {
      "constant": true,
      "inputs": [],
      "name": "leaderBoardStatus",
      "outputs": [
        {
          "internalType": "bool",
          "name": "",
          "type": "bool"
        }
      ],
      "payable": false,
      "stateMutability": "view",
      "type": "function"
    },
    {
      "constant": true,
      "inputs": [],
      "name": "owner",
      "outputs": [
        {
          "internalType": "address",
          "name": "",
          "type": "address"
        }
      ],
      "payable": false,
      "stateMutability": "view",
      "type": "function"
    },
    {
      "constant": false,
      "inputs": [],
      "name": "renounceOwnership",
      "outputs": [],
      "payable": false,
      "stateMutability": "nonpayable",
      "type": "function"
    },
    {
      "constant": true,
      "inputs": [],
      "name": "startTime",
      "outputs": [
        {
          "internalType": "uint256",
          "name": "",
          "type": "uint256"
        }
      ],
      "payable": false,
      "stateMutability": "view",
      "type": "function"
    },
    {
      "constant": true,
      "inputs": [],
      "name": "title",
      "outputs": [
        {
          "internalType": "string",
          "name": "",
          "type": "string"
        }
      ],
      "payable": false,
      "stateMutability": "view",
      "type": "function"
    },
    {
      "constant": false,
      "inputs": [
        {
          "internalType": "address",
          "name": "newOwner",
          "type": "address"
        }
      ],
      "name": "transferOwnership",
      "outputs": [],
      "payable": false,
      "stateMutability": "nonpayable",
      "type": "function"
    },
    {
      "constant": false,
      "inputs": [
        {
          "internalType": "string[]",
          "name": "newCandidates",
          "type": "string[]"
        },
        {
          "internalType": "uint256",
          "name": "electionStartTime",
          "type": "uint256"
        },
        {
          "internalType": "uint256",
          "name": "electionEndTime",
          "type": "uint256"
        },
        {
          "internalType": "string",
          "name": "_title",
          "type": "string"
        }
      ],
      "name": "restart",
      "outputs": [],
      "payable": false,
      "stateMutability": "nonpayable",
      "type": "function"
    },
    {
      "constant": false,
      "inputs": [],
      "name": "reset",
      "outputs": [],
      "payable": false,
      "stateMutability": "nonpayable",
      "type": "function"
    },
    {
      "constant": false,
      "inputs": [
        {
          "internalType": "string",
          "name": "candidateName",
          "type": "string"
        }
      ],
      "name": "vote",
      "outputs": [],
      "payable": false,
      "stateMutability": "nonpayable",
      "type": "function"
    },
    {
      "constant": false,
      "inputs": [],
      "name": "displayLeaderboard",
      "outputs": [],
      "payable": false,
      "stateMutability": "nonpayable",
      "type": "function"
    }
  ],
  "bytecode": "0x60806040526000600860006101000a81548160ff0219169083151502179055503480156200002c57600080fd5b5060405162001d4338038062001d438339818101604052620000529190810190620003f0565b336000806101000a81548173ffffffffffffffffffffffffffffffffffffffff021916908373ffffffffffffffffffffffffffffffffffffffff1602179055506000809054906101000a900473ffffffffffffffffffffffffffffffffffffffff1673ffffffffffffffffffffffffffffffffffffffff16600073ffffffffffffffffffffffffffffffffffffffff167f8be0079c531659141344cd1fd0a4f28419497f9722a3daafe3b4186f6b6457e060405160405180910390a3806001908051906020019062000126929190620001f5565b5060008090505b8451811015620001d45760038582815181106200014657fe5b602002602001015190806001815401808255809150509060018203906000526020600020016000909192909190915090805190602001906200018a929190620001f5565b5050600160048683815181106200019d57fe5b6020026020010151604051620001b49190620004c5565b90815260200160405180910390208190555080806001019150506200012d565b508351600281905550826005819055508160068190555050505050620005ff565b828054600181600116156101000203166002900490600052602060002090601f016020900481019282601f106200023857805160ff191683800117855562000269565b8280016001018555821562000269579182015b82811115620002685782518255916020019190600101906200024b565b5b5090506200027891906200027c565b5090565b620002a191905b808211156200029d57600081600090555060010162000283565b5090565b90565b600082601f830112620002b657600080fd5b8151620002cd620002c7826200050c565b620004de565b9150818183526020840193506020810190508360005b83811015620003175781518601620002fc888262000321565b845260208401935060208301925050600181019050620002e3565b5050505092915050565b600082601f8301126200033357600080fd5b81516200034a620003448262000535565b620004de565b915080825260208301602083018583830111156200036757600080fd5b62000374838284620005af565b50505092915050565b600082601f8301126200038f57600080fd5b8151620003a6620003a08262000562565b620004de565b91508082526020830160208301858383011115620003c357600080fd5b620003d0838284620005af565b50505092915050565b600081519050620003ea81620005e5565b92915050565b600080600080608085870312156200040757600080fd5b600085015167ffffffffffffffff8111156200042257600080fd5b6200043087828801620002a4565b94505060206200044387828801620003d9565b93505060406200045687828801620003d9565b925050606085015167ffffffffffffffff8111156200047457600080fd5b62000482878288016200037d565b91505092959194509250565b60006200049b826200058f565b620004a781856200059a565b9350620004b9818560208601620005af565b80840191505092915050565b6000620004d382846200048e565b915081905092915050565b6000604051905081810181811067ffffffffffffffff821117156200050257600080fd5b8060405250919050565b600067ffffffffffffffff8211156200052457600080fd5b602082029050602081019050919050565b600067ffffffffffffffff8211156200054d57600080fd5b601f19601f8301169050602081019050919050565b600067ffffffffffffffff8211156200057a57600080fd5b601f19601f8301169050602081019050919050565b600081519050919050565b600081905092915050565b6000819050919050565b60005b83811015620005cf578082015181840152602081019050620005b2565b83811115620005df576000848401525b50505050565b620005f081620005a5565b8114620005fc57600080fd5b50565b611734806200060f6000396000f3fe608060405234801561001057600080fd5b50600436106100f55760003560e01c80638da5cb5b11610097578063d826f88f11610066578063d826f88f14610240578063e216e9d61461024a578063f2fde38b14610266578063fc36e15b14610282576100f5565b80638da5cb5b146101c85780638f32d59b146101e6578063a0722d3614610204578063a9a981a314610222576100f5565b80634a79d50c116100d35780634a79d50c14610178578063606a458a14610196578063715018a6146101a057806378e97925146101aa576100f5565b8063157ba514146100fa5780633197cbb61461012a5780633477ee2e14610148575b600080fd5b610114600480360361010f9190810190610f43565b61029e565b6040516101219190611519565b60405180910390f35b6101326102cc565b60405161013f9190611519565b60405180910390f35b610162600480360361015d9190810190610fc5565b6102d2565b60405161016f9190611417565b60405180910390f35b61018061038b565b60405161018d9190611417565b60405180910390f35b61019e610429565b005b6101a861057e565b005b6101b261064e565b6040516101bf9190611519565b60405180910390f35b6101d0610654565b6040516101dd91906113e1565b60405180910390f35b6101ee61067d565b6040516101fb91906113fc565b60405180910390f35b61020c6106d4565b60405161021991906113fc565b60405180910390f35b61022a6106e7565b6040516102379190611519565b60405180910390f35b6102486106ed565b005b610264600480360361025f9190810190610eb0565b6107d6565b005b610280600480360361027b9190810190610e87565b61092c565b005b61029c60048036036102979190810190610f84565b610949565b005b6007818051602081018201805184825260208301602085012081835280955050505050506000915090505481565b60065481565b600381815481106102df57fe5b906000526020600020016000915090508054600181600116156101000203166002900480601f0160208091040260200160405190810160405280929190818152602001828054600181600116156101000203166002900480156103835780601f1061035857610100808354040283529160200191610383565b820191906000526020600020905b81548152906001019060200180831161036657829003601f168201915b505050505081565b60018054600181600116156101000203166002900480601f0160208091040260200160405190810160405280929190818152602001828054600181600116156101000203166002900480156104215780601f106103f657610100808354040283529160200191610421565b820191906000526020600020905b81548152906001019060200180831161040457829003601f168201915b505050505081565b61043161067d565b61043a57600080fd5b6006546103e842021015610483576040517f08c379a000000000000000000000000000000000000000000000000000000000815260040161047a90611499565b60405180910390fd5b600860009054906101000a900460ff16156104d3576040517f08c379a00000000000000000000000000000000000000000000000000000000081526004016104ca906114d9565b60405180910390fd5b60008090505b600380549050811015610560576004600382815481106104f557fe5b9060005260206000200160405161050c91906113ca565b90815260200160405180910390205460076003838154811061052a57fe5b9060005260206000200160405161054191906113ca565b90815260200160405180910390208190555080806001019150506104d9565b506001600860006101000a81548160ff021916908315150217905550565b61058661067d565b61058f57600080fd5b600073ffffffffffffffffffffffffffffffffffffffff166000809054906101000a900473ffffffffffffffffffffffffffffffffffffffff1673ffffffffffffffffffffffffffffffffffffffff167f8be0079c531659141344cd1fd0a4f28419497f9722a3daafe3b4186f6b6457e060405160405180910390a360008060006101000a81548173ffffffffffffffffffffffffffffffffffffffff021916908373ffffffffffffffffffffffffffffffffffffffff160217905550565b60055481565b60008060009054906101000a900473ffffffffffffffffffffffffffffffffffffffff16905090565b60008060009054906101000a900473ffffffffffffffffffffffffffffffffffffffff1673ffffffffffffffffffffffffffffffffffffffff163373ffffffffffffffffffffffffffffffffffffffff1614905090565b600860009054906101000a900460ff1681565b60025481565b6106f561067d565b6106fe57600080fd5b6006546103e842021015610747576040517f08c379a000000000000000000000000000000000000000000000000000000000815260040161073e90611459565b60405180910390fd5b61074f610a6e565b6040518060400160405280601481526020017f4e6f20656c656374696f6e20676f696e67206f6e0000000000000000000000008152506001908051906020019061079a929190610c07565b5060006002819055506000600860006101000a81548160ff0219169083151502179055506103e842026005819055506103e84202600681905550565b6107de61067d565b6107e757600080fd5b6006546103e842021015610830576040517f08c379a000000000000000000000000000000000000000000000000000000000815260040161082790611439565b60405180910390fd5b610838610a6e565b806001908051906020019061084e929190610c07565b5060008090505b84518110156108f457600385828151811061086c57fe5b602002602001015190806001815401808255809150509060018203906000526020600020016000909192909190915090805190602001906108ae929190610c07565b5050600160048683815181106108c057fe5b60200260200101516040516108d5919061139c565b9081526020016040518091039020819055508080600101915050610855565b5083516002819055506000600860006101000a81548160ff021916908315150217905550826005819055508160068190555050505050565b61093461067d565b61093d57600080fd5b61094681610b0f565b50565b600060048260405161095b91906113b3565b90815260200160405180910390205414156109ab576040517f08c379a00000000000000000000000000000000000000000000000000000000081526004016109a290611479565b60405180910390fd5b6005546103e8420210156109f4576040517f08c379a00000000000000000000000000000000000000000000000000000000081526004016109eb906114b9565b60405180910390fd5b6006546103e842021115610a3d576040517f08c379a0000000000000000000000000000000000000000000000000000000008152600401610a34906114f9565b60405180910390fd5b600481604051610a4d91906113b3565b90815260200160405180910390206000815480929190600101919050555050565b60008090505b600380549050811015610afe57600460038281548110610a9057fe5b90600052602060002001604051610aa791906113ca565b908152602001604051809103902060009055600760038281548110610ac857fe5b90600052602060002001604051610adf91906113ca565b9081526020016040518091039020600090558080600101915050610a74565b5060036000610b0d9190610c87565b565b600073ffffffffffffffffffffffffffffffffffffffff168173ffffffffffffffffffffffffffffffffffffffff161415610b4957600080fd5b8073ffffffffffffffffffffffffffffffffffffffff166000809054906101000a900473ffffffffffffffffffffffffffffffffffffffff1673ffffffffffffffffffffffffffffffffffffffff167f8be0079c531659141344cd1fd0a4f28419497f9722a3daafe3b4186f6b6457e060405160405180910390a3806000806101000a81548173ffffffffffffffffffffffffffffffffffffffff021916908373ffffffffffffffffffffffffffffffffffffffff16021790555050565b828054600181600116156101000203166002900490600052602060002090601f016020900481019282601f10610c4857805160ff1916838001178555610c76565b82800160010185558215610c76579182015b82811115610c75578251825591602001919060010190610c5a565b5b509050610c839190610ca8565b5090565b5080546000825590600052602060002090810190610ca59190610ccd565b50565b610cca91905b80821115610cc6576000816000905550600101610cae565b5090565b90565b610cf691905b80821115610cf25760008181610ce99190610cf9565b50600101610cd3565b5090565b90565b50805460018160011615610100020316600290046000825580601f10610d1f5750610d3e565b601f016020900490600052602060002090810190610d3d9190610ca8565b5b50565b600081359050610d50816116c3565b92915050565b600082601f830112610d6757600080fd5b8135610d7a610d7582611561565b611534565b9150818183526020840193506020810190508360005b83811015610dc05781358601610da68882610dca565b845260208401935060208301925050600181019050610d90565b5050505092915050565b600082601f830112610ddb57600080fd5b8135610dee610de982611589565b611534565b91508082526020830160208301858383011115610e0a57600080fd5b610e15838284611670565b50505092915050565b600082601f830112610e2f57600080fd5b8135610e42610e3d826115b5565b611534565b91508082526020830160208301858383011115610e5e57600080fd5b610e69838284611670565b50505092915050565b600081359050610e81816116da565b92915050565b600060208284031215610e9957600080fd5b6000610ea784828501610d41565b91505092915050565b60008060008060808587031215610ec657600080fd5b600085013567ffffffffffffffff811115610ee057600080fd5b610eec87828801610d56565b9450506020610efd87828801610e72565b9350506040610f0e87828801610e72565b925050606085013567ffffffffffffffff811115610f2b57600080fd5b610f3787828801610e1e565b91505092959194509250565b600060208284031215610f5557600080fd5b600082013567ffffffffffffffff811115610f6f57600080fd5b610f7b84828501610dca565b91505092915050565b600060208284031215610f9657600080fd5b600082013567ffffffffffffffff811115610fb057600080fd5b610fbc84828501610e1e565b91505092915050565b600060208284031215610fd757600080fd5b6000610fe584828501610e72565b91505092915050565b610ff781611628565b82525050565b6110068161163a565b82525050565b600061101782611601565b611021818561161d565b935061103181856020860161167f565b80840191505092915050565b6000611048826115f6565b611052818561160c565b935061106281856020860161167f565b61106b816116b2565b840191505092915050565b6000611081826115f6565b61108b818561161d565b935061109b81856020860161167f565b80840191505092915050565b6000815460018116600081146110c457600181146110e95761112d565b607f60028304166110d5818761161d565b955060ff198316865280860193505061112d565b600282046110f7818761161d565b9550611102856115e1565b60005b8281101561112457815481890152600182019150602081019050611105565b82880195505050505b505092915050565b600061114260388361160c565b91507f43616e6e6f74207374617274206e657720656c656374696f6e20756e74696c2060008301527f70726576696f757320656c656374696f6e20656e6473202100000000000000006020830152604082019050919050565b60006111a8602b8361160c565b91507f43616e6e6f7420726573657420756e74696c2070726576696f757320656c656360008301527f74696f6e20656e647320210000000000000000000000000000000000000000006020830152604082019050919050565b600061120e60248361160c565b91507f43616e646964617465206e6f7420696e636c7564656420696e20746865206c6960008301527f73742021000000000000000000000000000000000000000000000000000000006020830152604082019050919050565b600061127460318361160c565b91507f456c656374696f6e206d75737420656e64206265666f726520646973706c617960008301527f696e67206c6561646572426f61726420210000000000000000000000000000006020830152604082019050919050565b60006112da601a8361160c565b91507f456c656374696f6e206e6f7420737461727465642079657420210000000000006000830152602082019050919050565b600061131a601c8361160c565b91507f4c6561646572626f61726420616c7265616479206163746976652021000000006000830152602082019050919050565b600061135a60148361160c565b91507f456c656374696f6e2074696d6564206f757420210000000000000000000000006000830152602082019050919050565b61139681611666565b82525050565b60006113a88284611076565b915081905092915050565b60006113bf828461100c565b915081905092915050565b60006113d682846110a7565b915081905092915050565b60006020820190506113f66000830184610fee565b92915050565b60006020820190506114116000830184610ffd565b92915050565b60006020820190508181036000830152611431818461103d565b905092915050565b6000602082019050818103600083015261145281611135565b9050919050565b600060208201905081810360008301526114728161119b565b9050919050565b6000602082019050818103600083015261149281611201565b9050919050565b600060208201905081810360008301526114b281611267565b9050919050565b600060208201905081810360008301526114d2816112cd565b9050919050565b600060208201905081810360008301526114f28161130d565b9050919050565b600060208201905081810360008301526115128161134d565b9050919050565b600060208201905061152e600083018461138d565b92915050565b6000604051905081810181811067ffffffffffffffff8211171561155757600080fd5b8060405250919050565b600067ffffffffffffffff82111561157857600080fd5b602082029050602081019050919050565b600067ffffffffffffffff8211156115a057600080fd5b601f19601f8301169050602081019050919050565b600067ffffffffffffffff8211156115cc57600080fd5b601f19601f8301169050602081019050919050565b60008190508160005260206000209050919050565b600081519050919050565b600081519050919050565b600082825260208201905092915050565b600081905092915050565b600061163382611646565b9050919050565b60008115159050919050565b600073ffffffffffffffffffffffffffffffffffffffff82169050919050565b6000819050919050565b82818337600083830152505050565b60005b8381101561169d578082015181840152602081019050611682565b838111156116ac576000848401525b50505050565b6000601f19601f8301169050919050565b6116cc81611628565b81146116d757600080fd5b50565b6116e381611666565b81146116ee57600080fd5b5056fea365627a7a723158204c28e5e2fc70d0dd8b70a56b0be8526e7a34ad84b2fbd01fc96337dad91294996c6578706572696d656e74616cf564736f6c63430005100040",
  "source": "// SPDX-License-Identifier: GPL-3.0\n\npragma solidity >=0.5.0;\npragma experimental ABIEncoderV2;\n\nimport \"./Ownable.sol\";\n\n/**\n * @title Election\n * @dev Store & retrieve value in a variable\n */\ncontract Election is Ownable {\n    \n    string public title;\n    \n    uint public candidateCount;\n    string[] public candidates;\n    mapping(string => uint) private voteCounts;    \n    \n    uint public startTime;\n    uint public endTime;\n    \n    mapping(string => uint) public leaderBoard;\n    bool public leaderBoardStatus = false;\n    \n    constructor(string[] memory candidateNames, uint electionStartTime, uint electionEndTime, string memory _title) public {\n        \n        title = _title;\n        \n        for (uint i=0; i<candidateNames.length; i++) {\n            // Maintain candidates list\n            candidates.push(candidateNames[i]);\n            \n            // Initialise electionMapping\n            voteCounts[candidateNames[i]] = 1;\n        }\n        candidateCount = candidateNames.length;\n        \n        // Put election time limits\n        startTime = electionStartTime;\n        endTime = electionEndTime;\n    }\n    \n    function clear() internal{\n        // Remove candidate mappings of previous election\n        for(uint i=0; i<candidates.length; i++){\n            delete voteCounts[candidates[i]];\n            delete leaderBoard[candidates[i]];\n        }\n        \n        // Reset candidates list\n        delete candidates;\n        \n    }\n    \n    function restart(string[] memory newCandidates, uint  electionStartTime, uint electionEndTime, string memory _title)  public onlyOwner{\n        require(block.timestamp * 1000 >= endTime, \"Cannot start new election until previous election ends !\");\n        \n        clear();\n        \n        title = _title;\n        \n        for (uint i=0; i<newCandidates.length; i++) {\n            // Maintain new candidates list\n            candidates.push(newCandidates[i]);\n            \n            // Initialise mapping for new election\n            voteCounts[newCandidates[i]] = 1;\n        }\n        \n        candidateCount = newCandidates.length;\n        leaderBoardStatus = false;\n        \n        startTime = electionStartTime;\n        endTime = electionEndTime;\n    }\n    \n    function reset() external onlyOwner{\n        \n        require(block.timestamp * 1000 >= endTime, \"Cannot reset until previous election ends !\");\n        \n        clear();\n        \n        title = \"No election going on\";\n        \n        candidateCount = 0;\n        leaderBoardStatus = false;\n        \n        startTime = block.timestamp * 1000;\n        endTime = block.timestamp * 1000;\n    }\n\n    function vote(string memory candidateName) public{\n        require(voteCounts[candidateName] != 0, \"Candidate not included in the list !\");\n        require(block.timestamp * 1000 >= startTime, \"Election not started yet !\");\n        require(block.timestamp * 1000 <= endTime, \"Election timed out !\");\n        voteCounts[candidateName]++;\n    }\n    \n    function displayLeaderboard() external onlyOwner{\n        require(block.timestamp * 1000 >= endTime, \"Election must end before displaying leaderBoard !\");\n        require(!leaderBoardStatus, \"Leaderboard already active !\");\n        for(uint i=0; i<candidates.length; i++){\n            leaderBoard[candidates[i]] = voteCounts[candidates[i]];\n        }\n        leaderBoardStatus = true;\n    }\n}",
  "sourcePath": "/home/omkar/projects/openelection/contracts/Election.sol",
  "compiler": {
    "name": "solc",
    "version": "0.5.16+commit.9c3226ce.Emscripten.clang"
  },
  "schemaVersion": "3.3.4",
  "updatedAt": "2021-04-02T13:29:05.279Z",
  "networkType": "ethereum",
  "devdoc": {
    "details": "Store & retrieve value in a variable",
    "methods": {
      "isOwner()": {
        "return": "true if `msg.sender` is the owner of the contract."
      },
      "owner()": {
        "return": "the address of the owner."
      },
      "renounceOwnership()": {
        "details": "Allows the current owner to relinquish control of the contract."
      },
      "transferOwnership(address)": {
        "details": "Allows the current owner to transfer control of the contract to a newOwner.",
        "params": {
          "newOwner": "The address to transfer ownership to."
        }
      }
    },
    "title": "Election"
  },
  "userdoc": {
    "methods": {
      "renounceOwnership()": {
        "notice": "Renouncing to ownership will leave the contract without an owner. It will not be possible to call the functions with the `onlyOwner` modifier anymore."
      }
    }
  }
}