{
  "contractName": "Election",
  "abi": [
    {
      "inputs": [
        {
          "internalType": "string[]",
          "name": "candidateNames",
          "type": "string[]"
        },
        {
          "internalType": "uint256",
          "name": "electionStartTime",
          "type": "uint256"
        },
        {
          "internalType": "uint256",
          "name": "electionEndTime",
          "type": "uint256"
        },
        {
          "internalType": "string",
          "name": "_title",
          "type": "string"
        }
      ],
      "payable": false,
      "stateMutability": "nonpayable",
      "type": "constructor"
    },
    {
      "anonymous": false,
      "inputs": [
        {
          "indexed": true,
          "internalType": "address",
          "name": "previousOwner",
          "type": "address"
        },
        {
          "indexed": true,
          "internalType": "address",
          "name": "newOwner",
          "type": "address"
        }
      ],
      "name": "OwnershipTransferred",
      "type": "event"
    },
    {
      "constant": true,
      "inputs": [],
      "name": "candidateCount",
      "outputs": [
        {
          "internalType": "uint256",
          "name": "",
          "type": "uint256"
        }
      ],
      "payable": false,
      "stateMutability": "view",
      "type": "function"
    },
    {
      "constant": true,
      "inputs": [
        {
          "internalType": "uint256",
          "name": "",
          "type": "uint256"
        }
      ],
      "name": "candidates",
      "outputs": [
        {
          "internalType": "string",
          "name": "",
          "type": "string"
        }
      ],
      "payable": false,
      "stateMutability": "view",
      "type": "function"
    },
    {
      "constant": true,
      "inputs": [],
      "name": "endTime",
      "outputs": [
        {
          "internalType": "uint256",
          "name": "",
          "type": "uint256"
        }
      ],
      "payable": false,
      "stateMutability": "view",
      "type": "function"
    },
    {
      "constant": true,
      "inputs": [],
      "name": "isOwner",
      "outputs": [
        {
          "internalType": "bool",
          "name": "",
          "type": "bool"
        }
      ],
      "payable": false,
      "stateMutability": "view",
      "type": "function"
    },
    {
      "constant": true,
      "inputs": [
        {
          "internalType": "string",
          "name": "",
          "type": "string"
        }
      ],
      "name": "leaderBoard",
      "outputs": [
        {
          "internalType": "uint256",
          "name": "",
          "type": "uint256"
        }
      ],
      "payable": false,
      "stateMutability": "view",
      "type": "function"
    },
    {
      "constant": true,
      "inputs": [],
      "name": "leaderBoardStatus",
      "outputs": [
        {
          "internalType": "bool",
          "name": "",
          "type": "bool"
        }
      ],
      "payable": false,
      "stateMutability": "view",
      "type": "function"
    },
    {
      "constant": true,
      "inputs": [],
      "name": "owner",
      "outputs": [
        {
          "internalType": "address",
          "name": "",
          "type": "address"
        }
      ],
      "payable": false,
      "stateMutability": "view",
      "type": "function"
    },
    {
      "constant": false,
      "inputs": [],
      "name": "renounceOwnership",
      "outputs": [],
      "payable": false,
      "stateMutability": "nonpayable",
      "type": "function"
    },
    {
      "constant": true,
      "inputs": [],
      "name": "startTime",
      "outputs": [
        {
          "internalType": "uint256",
          "name": "",
          "type": "uint256"
        }
      ],
      "payable": false,
      "stateMutability": "view",
      "type": "function"
    },
    {
      "constant": true,
      "inputs": [],
      "name": "title",
      "outputs": [
        {
          "internalType": "string",
          "name": "",
          "type": "string"
        }
      ],
      "payable": false,
      "stateMutability": "view",
      "type": "function"
    },
    {
      "constant": false,
      "inputs": [
        {
          "internalType": "address",
          "name": "newOwner",
          "type": "address"
        }
      ],
      "name": "transferOwnership",
      "outputs": [],
      "payable": false,
      "stateMutability": "nonpayable",
      "type": "function"
    },
    {
      "constant": false,
      "inputs": [
        {
          "internalType": "string[]",
          "name": "newCandidates",
          "type": "string[]"
        },
        {
          "internalType": "uint256",
          "name": "electionStartTime",
          "type": "uint256"
        },
        {
          "internalType": "uint256",
          "name": "electionEndTime",
          "type": "uint256"
        },
        {
          "internalType": "string",
          "name": "_title",
          "type": "string"
        }
      ],
      "name": "restart",
      "outputs": [],
      "payable": false,
      "stateMutability": "nonpayable",
      "type": "function"
    },
    {
      "constant": false,
      "inputs": [],
      "name": "reset",
      "outputs": [],
      "payable": false,
      "stateMutability": "nonpayable",
      "type": "function"
    },
    {
      "constant": false,
      "inputs": [
        {
          "internalType": "string",
          "name": "candidateName",
          "type": "string"
        }
      ],
      "name": "vote",
      "outputs": [],
      "payable": false,
      "stateMutability": "nonpayable",
      "type": "function"
    },
    {
      "constant": false,
      "inputs": [],
      "name": "displayLeaderboard",
      "outputs": [],
      "payable": false,
      "stateMutability": "nonpayable",
      "type": "function"
    }
  ],
  "bytecode": "0x60806040526000600860006101000a81548160ff0219169083151502179055503480156200002c57600080fd5b5060405162001d2738038062001d278339818101604052620000529190810190620003f0565b336000806101000a81548173ffffffffffffffffffffffffffffffffffffffff021916908373ffffffffffffffffffffffffffffffffffffffff1602179055506000809054906101000a900473ffffffffffffffffffffffffffffffffffffffff1673ffffffffffffffffffffffffffffffffffffffff16600073ffffffffffffffffffffffffffffffffffffffff167f8be0079c531659141344cd1fd0a4f28419497f9722a3daafe3b4186f6b6457e060405160405180910390a3806001908051906020019062000126929190620001f5565b5060008090505b8451811015620001d45760038582815181106200014657fe5b602002602001015190806001815401808255809150509060018203906000526020600020016000909192909190915090805190602001906200018a929190620001f5565b5050600160048683815181106200019d57fe5b6020026020010151604051620001b49190620004c5565b90815260200160405180910390208190555080806001019150506200012d565b508351600281905550826005819055508160068190555050505050620005ff565b828054600181600116156101000203166002900490600052602060002090601f016020900481019282601f106200023857805160ff191683800117855562000269565b8280016001018555821562000269579182015b82811115620002685782518255916020019190600101906200024b565b5b5090506200027891906200027c565b5090565b620002a191905b808211156200029d57600081600090555060010162000283565b5090565b90565b600082601f830112620002b657600080fd5b8151620002cd620002c7826200050c565b620004de565b9150818183526020840193506020810190508360005b83811015620003175781518601620002fc888262000321565b845260208401935060208301925050600181019050620002e3565b5050505092915050565b600082601f8301126200033357600080fd5b81516200034a620003448262000535565b620004de565b915080825260208301602083018583830111156200036757600080fd5b62000374838284620005af565b50505092915050565b600082601f8301126200038f57600080fd5b8151620003a6620003a08262000562565b620004de565b91508082526020830160208301858383011115620003c357600080fd5b620003d0838284620005af565b50505092915050565b600081519050620003ea81620005e5565b92915050565b600080600080608085870312156200040757600080fd5b600085015167ffffffffffffffff8111156200042257600080fd5b6200043087828801620002a4565b94505060206200044387828801620003d9565b93505060406200045687828801620003d9565b925050606085015167ffffffffffffffff8111156200047457600080fd5b62000482878288016200037d565b91505092959194509250565b60006200049b826200058f565b620004a781856200059a565b9350620004b9818560208601620005af565b80840191505092915050565b6000620004d382846200048e565b915081905092915050565b6000604051905081810181811067ffffffffffffffff821117156200050257600080fd5b8060405250919050565b600067ffffffffffffffff8211156200052457600080fd5b602082029050602081019050919050565b600067ffffffffffffffff8211156200054d57600080fd5b601f19601f8301169050602081019050919050565b600067ffffffffffffffff8211156200057a57600080fd5b601f19601f8301169050602081019050919050565b600081519050919050565b600081905092915050565b6000819050919050565b60005b83811015620005cf578082015181840152602081019050620005b2565b83811115620005df576000848401525b50505050565b620005f081620005a5565b8114620005fc57600080fd5b50565b611718806200060f6000396000f3fe608060405234801561001057600080fd5b50600436106100f55760003560e01c80638da5cb5b11610097578063d826f88f11610066578063d826f88f14610240578063e216e9d61461024a578063f2fde38b14610266578063fc36e15b14610282576100f5565b80638da5cb5b146101c85780638f32d59b146101e6578063a0722d3614610204578063a9a981a314610222576100f5565b80634a79d50c116100d35780634a79d50c14610178578063606a458a14610196578063715018a6146101a057806378e97925146101aa576100f5565b8063157ba514146100fa5780633197cbb61461012a5780633477ee2e14610148575b600080fd5b610114600480360361010f9190810190610f27565b61029e565b60405161012191906114fd565b60405180910390f35b6101326102cc565b60405161013f91906114fd565b60405180910390f35b610162600480360361015d9190810190610fa9565b6102d2565b60405161016f91906113fb565b60405180910390f35b61018061038b565b60405161018d91906113fb565b60405180910390f35b61019e610429565b005b6101a861057a565b005b6101b261064a565b6040516101bf91906114fd565b60405180910390f35b6101d0610650565b6040516101dd91906113c5565b60405180910390f35b6101ee610679565b6040516101fb91906113e0565b60405180910390f35b61020c6106d0565b60405161021991906113e0565b60405180910390f35b61022a6106e3565b60405161023791906114fd565b60405180910390f35b6102486106e9565b005b610264600480360361025f9190810190610e94565b6107c6565b005b610280600480360361027b9190810190610e6b565b610918565b005b61029c60048036036102979190810190610f68565b610935565b005b6007818051602081018201805184825260208301602085012081835280955050505050506000915090505481565b60065481565b600381815481106102df57fe5b906000526020600020016000915090508054600181600116156101000203166002900480601f0160208091040260200160405190810160405280929190818152602001828054600181600116156101000203166002900480156103835780601f1061035857610100808354040283529160200191610383565b820191906000526020600020905b81548152906001019060200180831161036657829003601f168201915b505050505081565b60018054600181600116156101000203166002900480601f0160208091040260200160405190810160405280929190818152602001828054600181600116156101000203166002900480156104215780601f106103f657610100808354040283529160200191610421565b820191906000526020600020905b81548152906001019060200180831161040457829003601f168201915b505050505081565b610431610679565b61043a57600080fd5b60065442101561047f576040517f08c379a00000000000000000000000000000000000000000000000000000000081526004016104769061147d565b60405180910390fd5b600860009054906101000a900460ff16156104cf576040517f08c379a00000000000000000000000000000000000000000000000000000000081526004016104c6906114bd565b60405180910390fd5b60008090505b60038054905081101561055c576004600382815481106104f157fe5b9060005260206000200160405161050891906113ae565b90815260200160405180910390205460076003838154811061052657fe5b9060005260206000200160405161053d91906113ae565b90815260200160405180910390208190555080806001019150506104d5565b506001600860006101000a81548160ff021916908315150217905550565b610582610679565b61058b57600080fd5b600073ffffffffffffffffffffffffffffffffffffffff166000809054906101000a900473ffffffffffffffffffffffffffffffffffffffff1673ffffffffffffffffffffffffffffffffffffffff167f8be0079c531659141344cd1fd0a4f28419497f9722a3daafe3b4186f6b6457e060405160405180910390a360008060006101000a81548173ffffffffffffffffffffffffffffffffffffffff021916908373ffffffffffffffffffffffffffffffffffffffff160217905550565b60055481565b60008060009054906101000a900473ffffffffffffffffffffffffffffffffffffffff16905090565b60008060009054906101000a900473ffffffffffffffffffffffffffffffffffffffff1673ffffffffffffffffffffffffffffffffffffffff163373ffffffffffffffffffffffffffffffffffffffff1614905090565b600860009054906101000a900460ff1681565b60025481565b6106f1610679565b6106fa57600080fd5b60065442101561073f576040517f08c379a00000000000000000000000000000000000000000000000000000000081526004016107369061143d565b60405180910390fd5b610747610a52565b6040518060400160405280601481526020017f4e6f20656c656374696f6e20676f696e67206f6e00000000000000000000000081525060019080519060200190610792929190610beb565b5060006002819055506000600860006101000a81548160ff0219169083151502179055504260058190555042600681905550565b6107ce610679565b6107d757600080fd5b60065442101561081c576040517f08c379a00000000000000000000000000000000000000000000000000000000081526004016108139061141d565b60405180910390fd5b610824610a52565b806001908051906020019061083a929190610beb565b5060008090505b84518110156108e057600385828151811061085857fe5b6020026020010151908060018154018082558091505090600182039060005260206000200160009091929091909150908051906020019061089a929190610beb565b5050600160048683815181106108ac57fe5b60200260200101516040516108c19190611380565b9081526020016040518091039020819055508080600101915050610841565b5083516002819055506000600860006101000a81548160ff021916908315150217905550826005819055508160068190555050505050565b610920610679565b61092957600080fd5b61093281610af3565b50565b60006004826040516109479190611397565b9081526020016040518091039020541415610997576040517f08c379a000000000000000000000000000000000000000000000000000000000815260040161098e9061145d565b60405180910390fd5b6005544210156109dc576040517f08c379a00000000000000000000000000000000000000000000000000000000081526004016109d39061149d565b60405180910390fd5b600654421115610a21576040517f08c379a0000000000000000000000000000000000000000000000000000000008152600401610a18906114dd565b60405180910390fd5b600481604051610a319190611397565b90815260200160405180910390206000815480929190600101919050555050565b60008090505b600380549050811015610ae257600460038281548110610a7457fe5b90600052602060002001604051610a8b91906113ae565b908152602001604051809103902060009055600760038281548110610aac57fe5b90600052602060002001604051610ac391906113ae565b9081526020016040518091039020600090558080600101915050610a58565b5060036000610af19190610c6b565b565b600073ffffffffffffffffffffffffffffffffffffffff168173ffffffffffffffffffffffffffffffffffffffff161415610b2d57600080fd5b8073ffffffffffffffffffffffffffffffffffffffff166000809054906101000a900473ffffffffffffffffffffffffffffffffffffffff1673ffffffffffffffffffffffffffffffffffffffff167f8be0079c531659141344cd1fd0a4f28419497f9722a3daafe3b4186f6b6457e060405160405180910390a3806000806101000a81548173ffffffffffffffffffffffffffffffffffffffff021916908373ffffffffffffffffffffffffffffffffffffffff16021790555050565b828054600181600116156101000203166002900490600052602060002090601f016020900481019282601f10610c2c57805160ff1916838001178555610c5a565b82800160010185558215610c5a579182015b82811115610c59578251825591602001919060010190610c3e565b5b509050610c679190610c8c565b5090565b5080546000825590600052602060002090810190610c899190610cb1565b50565b610cae91905b80821115610caa576000816000905550600101610c92565b5090565b90565b610cda91905b80821115610cd65760008181610ccd9190610cdd565b50600101610cb7565b5090565b90565b50805460018160011615610100020316600290046000825580601f10610d035750610d22565b601f016020900490600052602060002090810190610d219190610c8c565b5b50565b600081359050610d34816116a7565b92915050565b600082601f830112610d4b57600080fd5b8135610d5e610d5982611545565b611518565b9150818183526020840193506020810190508360005b83811015610da45781358601610d8a8882610dae565b845260208401935060208301925050600181019050610d74565b5050505092915050565b600082601f830112610dbf57600080fd5b8135610dd2610dcd8261156d565b611518565b91508082526020830160208301858383011115610dee57600080fd5b610df9838284611654565b50505092915050565b600082601f830112610e1357600080fd5b8135610e26610e2182611599565b611518565b91508082526020830160208301858383011115610e4257600080fd5b610e4d838284611654565b50505092915050565b600081359050610e65816116be565b92915050565b600060208284031215610e7d57600080fd5b6000610e8b84828501610d25565b91505092915050565b60008060008060808587031215610eaa57600080fd5b600085013567ffffffffffffffff811115610ec457600080fd5b610ed087828801610d3a565b9450506020610ee187828801610e56565b9350506040610ef287828801610e56565b925050606085013567ffffffffffffffff811115610f0f57600080fd5b610f1b87828801610e02565b91505092959194509250565b600060208284031215610f3957600080fd5b600082013567ffffffffffffffff811115610f5357600080fd5b610f5f84828501610dae565b91505092915050565b600060208284031215610f7a57600080fd5b600082013567ffffffffffffffff811115610f9457600080fd5b610fa084828501610e02565b91505092915050565b600060208284031215610fbb57600080fd5b6000610fc984828501610e56565b91505092915050565b610fdb8161160c565b82525050565b610fea8161161e565b82525050565b6000610ffb826115e5565b6110058185611601565b9350611015818560208601611663565b80840191505092915050565b600061102c826115da565b61103681856115f0565b9350611046818560208601611663565b61104f81611696565b840191505092915050565b6000611065826115da565b61106f8185611601565b935061107f818560208601611663565b80840191505092915050565b6000815460018116600081146110a857600181146110cd57611111565b607f60028304166110b98187611601565b955060ff1983168652808601935050611111565b600282046110db8187611601565b95506110e6856115c5565b60005b82811015611108578154818901526001820191506020810190506110e9565b82880195505050505b505092915050565b60006111266038836115f0565b91507f43616e6e6f74207374617274206e657720656c656374696f6e20756e74696c2060008301527f70726576696f757320656c656374696f6e20656e6473202100000000000000006020830152604082019050919050565b600061118c602b836115f0565b91507f43616e6e6f7420726573657420756e74696c2070726576696f757320656c656360008301527f74696f6e20656e647320210000000000000000000000000000000000000000006020830152604082019050919050565b60006111f26024836115f0565b91507f43616e646964617465206e6f7420696e636c7564656420696e20746865206c6960008301527f73742021000000000000000000000000000000000000000000000000000000006020830152604082019050919050565b60006112586031836115f0565b91507f456c656374696f6e206d75737420656e64206265666f726520646973706c617960008301527f696e67206c6561646572426f61726420210000000000000000000000000000006020830152604082019050919050565b60006112be601a836115f0565b91507f456c656374696f6e206e6f7420737461727465642079657420210000000000006000830152602082019050919050565b60006112fe601c836115f0565b91507f4c6561646572626f61726420616c7265616479206163746976652021000000006000830152602082019050919050565b600061133e6014836115f0565b91507f456c656374696f6e2074696d6564206f757420210000000000000000000000006000830152602082019050919050565b61137a8161164a565b82525050565b600061138c828461105a565b915081905092915050565b60006113a38284610ff0565b915081905092915050565b60006113ba828461108b565b915081905092915050565b60006020820190506113da6000830184610fd2565b92915050565b60006020820190506113f56000830184610fe1565b92915050565b600060208201905081810360008301526114158184611021565b905092915050565b6000602082019050818103600083015261143681611119565b9050919050565b600060208201905081810360008301526114568161117f565b9050919050565b60006020820190508181036000830152611476816111e5565b9050919050565b600060208201905081810360008301526114968161124b565b9050919050565b600060208201905081810360008301526114b6816112b1565b9050919050565b600060208201905081810360008301526114d6816112f1565b9050919050565b600060208201905081810360008301526114f681611331565b9050919050565b60006020820190506115126000830184611371565b92915050565b6000604051905081810181811067ffffffffffffffff8211171561153b57600080fd5b8060405250919050565b600067ffffffffffffffff82111561155c57600080fd5b602082029050602081019050919050565b600067ffffffffffffffff82111561158457600080fd5b601f19601f8301169050602081019050919050565b600067ffffffffffffffff8211156115b057600080fd5b601f19601f8301169050602081019050919050565b60008190508160005260206000209050919050565b600081519050919050565b600081519050919050565b600082825260208201905092915050565b600081905092915050565b60006116178261162a565b9050919050565b60008115159050919050565b600073ffffffffffffffffffffffffffffffffffffffff82169050919050565b6000819050919050565b82818337600083830152505050565b60005b83811015611681578082015181840152602081019050611666565b83811115611690576000848401525b50505050565b6000601f19601f8301169050919050565b6116b08161160c565b81146116bb57600080fd5b50565b6116c78161164a565b81146116d257600080fd5b5056fea365627a7a723158208f9b9da6d124c8afe6287925373f739d8ff3ecd48cd378ae86d95d8b224e7d406c6578706572696d656e74616cf564736f6c63430005100040",
  "source": "// SPDX-License-Identifier: GPL-3.0\n\npragma solidity >=0.5.0;\npragma experimental ABIEncoderV2;\n\nimport \"./Ownable.sol\";\n\n/**\n * @title Election\n * @dev Store & retrieve value in a variable\n */\ncontract Election is Ownable {\n    \n    string public title;\n    \n    uint public candidateCount;\n    string[] public candidates;\n    mapping(string => uint) private voteCounts;    \n    \n    uint public startTime;\n    uint public endTime;\n    \n    mapping(string => uint) public leaderBoard;\n    bool public leaderBoardStatus = false;\n    \n    constructor(string[] memory candidateNames, uint electionStartTime, uint electionEndTime, string memory _title) public {\n        \n        title = _title;\n        \n        for (uint i=0; i<candidateNames.length; i++) {\n            // Maintain candidates list\n            candidates.push(candidateNames[i]);\n            \n            // Initialise electionMapping\n            voteCounts[candidateNames[i]] = 1;\n        }\n        candidateCount = candidateNames.length;\n        \n        // Put election time limits\n        startTime = electionStartTime;\n        endTime = electionEndTime;\n    }\n    \n    function clear() internal{\n        // Remove candidate mappings of previous election\n        for(uint i=0; i<candidates.length; i++){\n            delete voteCounts[candidates[i]];\n            delete leaderBoard[candidates[i]];\n        }\n        \n        // Reset candidates list\n        delete candidates;\n        \n    }\n    \n    function restart(string[] memory newCandidates, uint  electionStartTime, uint electionEndTime, string memory _title)  public onlyOwner{\n        require(block.timestamp >= endTime, \"Cannot start new election until previous election ends !\");\n        \n        clear();\n        \n        title = _title;\n        \n        for (uint i=0; i<newCandidates.length; i++) {\n            // Maintain new candidates list\n            candidates.push(newCandidates[i]);\n            \n            // Initialise mapping for new election\n            voteCounts[newCandidates[i]] = 1;\n        }\n        \n        candidateCount = newCandidates.length;\n        leaderBoardStatus = false;\n        \n        startTime = electionStartTime;\n        endTime = electionEndTime;\n    }\n    \n    function reset() external onlyOwner{\n        \n        require(block.timestamp >= endTime, \"Cannot reset until previous election ends !\");\n        \n        clear();\n        \n        title = \"No election going on\";\n        \n        candidateCount = 0;\n        leaderBoardStatus = false;\n        \n        startTime = block.timestamp;\n        endTime = block.timestamp;\n    }\n\n    function vote(string memory candidateName) public{\n        require(voteCounts[candidateName] != 0, \"Candidate not included in the list !\");\n        require(block.timestamp >= startTime, \"Election not started yet !\");\n        require(block.timestamp <= endTime, \"Election timed out !\");\n        voteCounts[candidateName]++;\n    }\n    \n    function displayLeaderboard() external onlyOwner{\n        require(block.timestamp >= endTime, \"Election must end before displaying leaderBoard !\");\n        require(!leaderBoardStatus, \"Leaderboard already active !\");\n        for(uint i=0; i<candidates.length; i++){\n            leaderBoard[candidates[i]] = voteCounts[candidates[i]];\n        }\n        leaderBoardStatus = true;\n    }\n}",
  "sourcePath": "/home/omkar/projects/openelection/contracts/Election.sol",
  "compiler": {
    "name": "solc",
    "version": "0.5.16+commit.9c3226ce.Emscripten.clang"
  },
  "schemaVersion": "3.3.4",
  "updatedAt": "2021-03-30T07:05:22.233Z",
  "networkType": "ethereum",
  "devdoc": {
    "details": "Store & retrieve value in a variable",
    "methods": {
      "isOwner()": {
        "return": "true if `msg.sender` is the owner of the contract."
      },
      "owner()": {
        "return": "the address of the owner."
      },
      "renounceOwnership()": {
        "details": "Allows the current owner to relinquish control of the contract."
      },
      "transferOwnership(address)": {
        "details": "Allows the current owner to transfer control of the contract to a newOwner.",
        "params": {
          "newOwner": "The address to transfer ownership to."
        }
      }
    },
    "title": "Election"
  },
  "userdoc": {
    "methods": {
      "renounceOwnership()": {
        "notice": "Renouncing to ownership will leave the contract without an owner. It will not be possible to call the functions with the `onlyOwner` modifier anymore."
      }
    }
  }
}